{
    "contractName": "A",
    "abi": [
        {
            "inputs": [
                {
                    "internalType": "address",
                    "name": "name",
                    "type": "address"
                }
            ],
            "name": "transfer2",
            "outputs": [],
            "stateMutability": "nonpayable",
            "type": "function"
        }
    ],
    "bytecode": "608060405234801561001057600080fd5b50610189806100206000396000f3fe608060405234801561001057600080fd5b506004361061002b5760003560e01c806352d6ec7614610030575b600080fd5b61004361003e366004610101565b610045565b005b6001600160a01b0381163b61008a5760405162461bcd60e51b81526020600482015260076024820152666d65737361676560c81b604482015260640160405180910390fd5b60405163a9059cbb60e01b8152336004820152620186a060248201526001600160a01b0382169063a9059cbb906044016020604051808303816000875af11580156100d9573d6000803e3d6000fd5b505050506040513d601f19601f820116820180604052508101906100fd9190610131565b5050565b60006020828403121561011357600080fd5b81356001600160a01b038116811461012a57600080fd5b9392505050565b60006020828403121561014357600080fd5b8151801515811461012a57600080fdfea26469706673582212207eea08d5f0c679f89b54968275e61724b8cf1c2f28a003bfa07040fb63eae60564736f6c634300080b0033",
    "sourcePath": "/Volumes/Solidity/epic-nfts/contracts/test4.sol",
    "compiler": {
        "name": "solc",
        "version": "0.8.11+commit.d7f03943"
    },
    "functionHashes": {
        "transfer2(address)": "52d6ec76"
    },
    "gasEstimates": {
        "creation": {
            "codeDepositCost": "78600",
            "executionCost": "129",
            "totalCost": "78729"
        },
        "external": {
            "transfer2(address)": "infinite"
        }
    }
}