{
    "contractName": "MyEpicNFT",
    "abi": [
        {
            "inputs": [],
            "stateMutability": "nonpayable",
            "type": "constructor"
        },
        {
            "anonymous": false,
            "inputs": [
                {
                    "indexed": true,
                    "internalType": "address",
                    "name": "owner",
                    "type": "address"
                },
                {
                    "indexed": true,
                    "internalType": "address",
                    "name": "approved",
                    "type": "address"
                },
                {
                    "indexed": true,
                    "internalType": "uint256",
                    "name": "tokenId",
                    "type": "uint256"
                }
            ],
            "name": "Approval",
            "type": "event"
        },
        {
            "anonymous": false,
            "inputs": [
                {
                    "indexed": true,
                    "internalType": "address",
                    "name": "owner",
                    "type": "address"
                },
                {
                    "indexed": true,
                    "internalType": "address",
                    "name": "operator",
                    "type": "address"
                },
                {
                    "indexed": false,
                    "internalType": "bool",
                    "name": "approved",
                    "type": "bool"
                }
            ],
            "name": "ApprovalForAll",
            "type": "event"
        },
        {
            "anonymous": false,
            "inputs": [
                {
                    "indexed": false,
                    "internalType": "address",
                    "name": "sender",
                    "type": "address"
                },
                {
                    "indexed": false,
                    "internalType": "uint256",
                    "name": "tokenId",
                    "type": "uint256"
                }
            ],
            "name": "NewEpicNFTMinted",
            "type": "event"
        },
        {
            "anonymous": false,
            "inputs": [
                {
                    "indexed": true,
                    "internalType": "address",
                    "name": "from",
                    "type": "address"
                },
                {
                    "indexed": true,
                    "internalType": "address",
                    "name": "to",
                    "type": "address"
                },
                {
                    "indexed": true,
                    "internalType": "uint256",
                    "name": "tokenId",
                    "type": "uint256"
                }
            ],
            "name": "Transfer",
            "type": "event"
        },
        {
            "inputs": [
                {
                    "internalType": "address",
                    "name": "to",
                    "type": "address"
                },
                {
                    "internalType": "uint256",
                    "name": "tokenId",
                    "type": "uint256"
                }
            ],
            "name": "approve",
            "outputs": [],
            "stateMutability": "nonpayable",
            "type": "function"
        },
        {
            "inputs": [
                {
                    "internalType": "address",
                    "name": "owner",
                    "type": "address"
                }
            ],
            "name": "balanceOf",
            "outputs": [
                {
                    "internalType": "uint256",
                    "name": "",
                    "type": "uint256"
                }
            ],
            "stateMutability": "view",
            "type": "function"
        },
        {
            "inputs": [
                {
                    "internalType": "uint256",
                    "name": "tokenId",
                    "type": "uint256"
                }
            ],
            "name": "getApproved",
            "outputs": [
                {
                    "internalType": "address",
                    "name": "",
                    "type": "address"
                }
            ],
            "stateMutability": "view",
            "type": "function"
        },
        {
            "inputs": [
                {
                    "internalType": "address",
                    "name": "owner",
                    "type": "address"
                },
                {
                    "internalType": "address",
                    "name": "operator",
                    "type": "address"
                }
            ],
            "name": "isApprovedForAll",
            "outputs": [
                {
                    "internalType": "bool",
                    "name": "",
                    "type": "bool"
                }
            ],
            "stateMutability": "view",
            "type": "function"
        },
        {
            "inputs": [],
            "name": "makeAnEpicNFT",
            "outputs": [],
            "stateMutability": "nonpayable",
            "type": "function"
        },
        {
            "inputs": [],
            "name": "name",
            "outputs": [
                {
                    "internalType": "string",
                    "name": "",
                    "type": "string"
                }
            ],
            "stateMutability": "view",
            "type": "function"
        },
        {
            "inputs": [
                {
                    "internalType": "uint256",
                    "name": "tokenId",
                    "type": "uint256"
                }
            ],
            "name": "ownerOf",
            "outputs": [
                {
                    "internalType": "address",
                    "name": "",
                    "type": "address"
                }
            ],
            "stateMutability": "view",
            "type": "function"
        },
        {
            "inputs": [
                {
                    "internalType": "uint256",
                    "name": "tokenId",
                    "type": "uint256"
                }
            ],
            "name": "pickRandomFirstWord",
            "outputs": [
                {
                    "internalType": "string",
                    "name": "",
                    "type": "string"
                }
            ],
            "stateMutability": "view",
            "type": "function"
        },
        {
            "inputs": [
                {
                    "internalType": "uint256",
                    "name": "tokenId",
                    "type": "uint256"
                }
            ],
            "name": "pickRandomSecondWord",
            "outputs": [
                {
                    "internalType": "string",
                    "name": "",
                    "type": "string"
                }
            ],
            "stateMutability": "view",
            "type": "function"
        },
        {
            "inputs": [
                {
                    "internalType": "uint256",
                    "name": "tokenId",
                    "type": "uint256"
                }
            ],
            "name": "pickRandomThirdWord",
            "outputs": [
                {
                    "internalType": "string",
                    "name": "",
                    "type": "string"
                }
            ],
            "stateMutability": "view",
            "type": "function"
        },
        {
            "inputs": [
                {
                    "internalType": "address",
                    "name": "from",
                    "type": "address"
                },
                {
                    "internalType": "address",
                    "name": "to",
                    "type": "address"
                },
                {
                    "internalType": "uint256",
                    "name": "tokenId",
                    "type": "uint256"
                }
            ],
            "name": "safeTransferFrom",
            "outputs": [],
            "stateMutability": "nonpayable",
            "type": "function"
        },
        {
            "inputs": [
                {
                    "internalType": "address",
                    "name": "from",
                    "type": "address"
                },
                {
                    "internalType": "address",
                    "name": "to",
                    "type": "address"
                },
                {
                    "internalType": "uint256",
                    "name": "tokenId",
                    "type": "uint256"
                },
                {
                    "internalType": "bytes",
                    "name": "_data",
                    "type": "bytes"
                }
            ],
            "name": "safeTransferFrom",
            "outputs": [],
            "stateMutability": "nonpayable",
            "type": "function"
        },
        {
            "inputs": [
                {
                    "internalType": "address",
                    "name": "operator",
                    "type": "address"
                },
                {
                    "internalType": "bool",
                    "name": "approved",
                    "type": "bool"
                }
            ],
            "name": "setApprovalForAll",
            "outputs": [],
            "stateMutability": "nonpayable",
            "type": "function"
        },
        {
            "inputs": [
                {
                    "internalType": "bytes4",
                    "name": "interfaceId",
                    "type": "bytes4"
                }
            ],
            "name": "supportsInterface",
            "outputs": [
                {
                    "internalType": "bool",
                    "name": "",
                    "type": "bool"
                }
            ],
            "stateMutability": "view",
            "type": "function"
        },
        {
            "inputs": [],
            "name": "symbol",
            "outputs": [
                {
                    "internalType": "string",
                    "name": "",
                    "type": "string"
                }
            ],
            "stateMutability": "view",
            "type": "function"
        },
        {
            "inputs": [
                {
                    "internalType": "uint256",
                    "name": "tokenId",
                    "type": "uint256"
                }
            ],
            "name": "tokenURI",
            "outputs": [
                {
                    "internalType": "string",
                    "name": "",
                    "type": "string"
                }
            ],
            "stateMutability": "view",
            "type": "function"
        },
        {
            "inputs": [
                {
                    "internalType": "address",
                    "name": "from",
                    "type": "address"
                },
                {
                    "internalType": "address",
                    "name": "to",
                    "type": "address"
                },
                {
                    "internalType": "uint256",
                    "name": "tokenId",
                    "type": "uint256"
                }
            ],
            "name": "transferFrom",
            "outputs": [],
            "stateMutability": "nonpayable",
            "type": "function"
        }
    ],
    "bytecode": "6101e060405261012f608081815290620026dc60a03980516200002b916008916020909101906200045c565b506040805161012081018252600960e082018181526846616e74617374696360b81b6101008401528252825180840184526004808252634570696360e01b602083810191909152808501929092528451808601865260088152675465727269626c6560c01b81840152848601528451808601865260058152644372617a7960d81b818401526060850152845180860186529081526315da5b1960e21b81830152608084015283518085018552600a81526954657272696679696e6760b01b8183015260a08401528351808501909452600684526553706f6f6b7960d01b9084015260c08201929092526200012291906007620004eb565b506040805161012081018252600760e082018181526643757063616b6560c81b61010084015282528251808401845260058082526450697a7a6160d81b602083810191909152808501929092528451808601865260098152684d696c6b7368616b6560b81b81840152848601528451808601865281815264437572727960d81b818401526060850152845180860186528381526621b434b1b5b2b760c91b8184015260808501528451808601865260088152670a6c2dcc8eed2c6d60c31b8184015260a0850152845180860190955284526414d85b185960da1b9084015260c08201929092526200021791600a9190620004eb565b50604080516101408101825260066101008201818152654e617275746f60d01b61012084015282528251808401845281815265536173756b6560d01b60208281019190915280840191909152835180850185528281526553616b75726160d01b8183015283850152835180850185526004815263476f6b7560e01b818301526060840152835180850185526005815264476161726160d81b81830152608084015283518085018552828152654d696e61746f60d01b8183015260a08401528351808501855260078152664b756b6173686960c81b8183015260c08401528351808501909452908352654d616461726160d01b9083015260e08101919091526200032590600b9060086200054b565b503480156200033357600080fd5b50604080518082018252600981526814dc5d585c9953919560ba1b60208083019182528351808501909452600684526553515541524560d01b90840152815191929162000383916000916200045c565b508051620003999060019060208401906200045c565b505050620003e76040518060400160405280601e81526020017f54686973206973206d79204e465420436f6e74726163742e2057686f61210000815250620003ed60201b62000bb71760201c565b620006a9565b620004388160405160240162000404919062000614565b60408051601f198184030181529190526020810180516001600160e01b0390811663104c13eb60e21b179091526200043b16565b50565b80516a636f6e736f6c652e6c6f67602083016000808483855afa5050505050565b8280546200046a906200066c565b90600052602060002090601f0160209004810192826200048e5760008555620004d9565b82601f10620004a957805160ff1916838001178555620004d9565b82800160010185558215620004d9579182015b82811115620004d9578251825591602001919060010190620004bc565b50620004e79291506200059d565b5090565b8280548282559060005260206000209081019282156200053d579160200282015b828111156200053d57825180516200052c9184916020909101906200045c565b50916020019190600101906200050c565b50620004e7929150620005b4565b8280548282559060005260206000209081019282156200053d579160200282015b828111156200053d57825180516200058c9184916020909101906200045c565b50916020019190600101906200056c565b5b80821115620004e757600081556001016200059e565b80821115620004e7576000620005cb8282620005d5565b50600101620005b4565b508054620005e3906200066c565b6000825580601f10620005f4575050565b601f0160209004906000526020600020908101906200043891906200059d565b600060208083528351808285015260005b81811015620006435785810183015185820160400152820162000625565b8181111562000656576000604083870101525b50601f01601f1916929092016040019392505050565b600181811c908216806200068157607f821691505b60208210811415620006a357634e487b7160e01b600052602260045260246000fd5b50919050565b61202380620006b96000396000f3fe608060405234801561001057600080fd5b506004361061010b5760003560e01c806370a08231116100a2578063b88d4fde11610071578063b88d4fde14610228578063c575757a1461023b578063c87b56dd1461024e578063de9d132f14610261578063e985e9c51461026957600080fd5b806370a08231146101d957806395d89b41146101fa578063a22cb46514610202578063b187301f1461021557600080fd5b806323b872dd116100de57806323b872dd1461018d5780632de38d68146101a057806342842e0e146101b35780636352211e146101c657600080fd5b806301ffc9a71461011057806306fdde0314610138578063081812fc1461014d578063095ea7b314610178575b600080fd5b61012361011e366004611799565b6102a5565b60405190151581526020015b60405180910390f35b6101406102f7565b60405161012f919061180e565b61016061015b366004611821565b610389565b6040516001600160a01b03909116815260200161012f565b61018b610186366004611856565b610416565b005b61018b61019b366004611880565b61052c565b6101406101ae366004611821565b61055d565b61018b6101c1366004611880565b610651565b6101606101d4366004611821565b61066c565b6101ec6101e73660046118bc565b6106e3565b60405190815260200161012f565b61014061076a565b61018b6102103660046118d7565b610779565b610140610223366004611821565b610788565b61018b610236366004611929565b6107cd565b610140610249366004611821565b610805565b61014061025c366004611821565b61084a565b61018b6109c1565b610123610277366004611a05565b6001600160a01b03918216600090815260056020908152604080832093909416825291909152205460ff1690565b60006001600160e01b031982166380ac58cd60e01b14806102d657506001600160e01b03198216635b5e139f60e01b145b806102f157506301ffc9a760e01b6001600160e01b03198316145b92915050565b60606000805461030690611a38565b80601f016020809104026020016040519081016040528092919081815260200182805461033290611a38565b801561037f5780601f106103545761010080835404028352916020019161037f565b820191906000526020600020905b81548152906001019060200180831161036257829003601f168201915b5050505050905090565b600061039482610bfd565b6103fa5760405162461bcd60e51b815260206004820152602c60248201527f4552433732313a20617070726f76656420717565727920666f72206e6f6e657860448201526b34b9ba32b73a103a37b5b2b760a11b60648201526084015b60405180910390fd5b506000908152600460205260409020546001600160a01b031690565b60006104218261066c565b9050806001600160a01b0316836001600160a01b0316141561048f5760405162461bcd60e51b815260206004820152602160248201527f4552433732313a20617070726f76616c20746f2063757272656e74206f776e656044820152603960f91b60648201526084016103f1565b336001600160a01b03821614806104ab57506104ab8133610277565b61051d5760405162461bcd60e51b815260206004820152603860248201527f4552433732313a20617070726f76652063616c6c6572206973206e6f74206f7760448201527f6e6572206e6f7220617070726f76656420666f7220616c6c000000000000000060648201526084016103f1565b6105278383610c1a565b505050565b6105363382610c88565b6105525760405162461bcd60e51b81526004016103f190611a73565b610527838383610d6e565b6060600061059161056d84610f0e565b60405160200161057d9190611ae0565b60405160208183030381529060405261100c565b6009549091506105a19082611b28565b9050600981815481106105b6576105b6611b3c565b9060005260206000200180546105cb90611a38565b80601f01602080910402602001604051908101604052809291908181526020018280546105f790611a38565b80156106445780601f1061061957610100808354040283529160200191610644565b820191906000526020600020905b81548152906001019060200180831161062757829003601f168201915b5050505050915050919050565b610527838383604051806020016040528060008152506107cd565b6000818152600260205260408120546001600160a01b0316806102f15760405162461bcd60e51b815260206004820152602960248201527f4552433732313a206f776e657220717565727920666f72206e6f6e657869737460448201526832b73a103a37b5b2b760b91b60648201526084016103f1565b60006001600160a01b03821661074e5760405162461bcd60e51b815260206004820152602a60248201527f4552433732313a2062616c616e636520717565727920666f7220746865207a65604482015269726f206164647265737360b01b60648201526084016103f1565b506001600160a01b031660009081526003602052604090205490565b60606001805461030690611a38565b61078433838361103d565b5050565b606060006107a861079884610f0e565b60405160200161057d9190611b52565b600a549091506107b89082611b28565b9050600a81815481106105b6576105b6611b3c565b6107d73383610c88565b6107f35760405162461bcd60e51b81526004016103f190611a73565b6107ff8484848461110c565b50505050565b6060600061082561081584610f0e565b60405160200161057d9190611b85565b600b549091506108359082611b28565b9050600b81815481106105b6576105b6611b3c565b606061085582610bfd565b6108bb5760405162461bcd60e51b815260206004820152603160248201527f45524337323155524953746f726167653a2055524920717565727920666f72206044820152703737b732bc34b9ba32b73a103a37b5b2b760791b60648201526084016103f1565b600082815260066020526040812080546108d490611a38565b80601f016020809104026020016040519081016040528092919081815260200182805461090090611a38565b801561094d5780601f106109225761010080835404028352916020019161094d565b820191906000526020600020905b81548152906001019060200180831161093057829003601f168201915b50505050509050600061096b60408051602081019091526000815290565b905080516000141561097e575092915050565b8151156109b0578082604051602001610998929190611baa565b60405160208183030381529060405292505050919050565b6109b98461113f565b949350505050565b60006109cc60075490565b905060006109d98261055d565b905060006109e683610788565b905060006109f384610805565b90506000838383604051602001610a0c93929190611bd9565b60405160208183030381529060405290506000600882604051602001610a33929190611c1c565b60405160208183030381529060405290506000610a7883610a5384611217565b604051602001610a64929190611cdf565b604051602081830303815290604052611217565b9050600081604051602001610a8d9190611db5565b60408051601f1981840301815282820190915260158252740a2d2d2d2d2d2d2d2d2d2d2d2d2d2d2d2d2d2d2d2d60581b60208301529150610acd90610bb7565b610ad681610bb7565b610b0c604051806040016040528060158152602001740a2d2d2d2d2d2d2d2d2d2d2d2d2d2d2d2d2d2d2d2d60581b815250610bb7565b610b16338961137d565b610b208882611397565b610b43604051806060016040528060258152602001611f89602591398933611422565b610b51600780546001019055565b610b74604051806060016040528060258152602001611f89602591398933611422565b60408051338152602081018a90527febb98688741ffa4c7589bf325de30cf7becb63de567842e1ccdb6cb949fdc82c910160405180910390a15050505050505050565b610bfa81604051602401610bcb919061180e565b60408051601f198184030181529190526020810180516001600160e01b031663104c13eb60e21b179052611465565b50565b6000908152600260205260409020546001600160a01b0316151590565b600081815260046020526040902080546001600160a01b0319166001600160a01b0384169081179091558190610c4f8261066c565b6001600160a01b03167f8c5be1e5ebec7d5bd14f71427d1e84f3dd0314c0f7b2291e5b200ac8c7c3b92560405160405180910390a45050565b6000610c9382610bfd565b610cf45760405162461bcd60e51b815260206004820152602c60248201527f4552433732313a206f70657261746f7220717565727920666f72206e6f6e657860448201526b34b9ba32b73a103a37b5b2b760a11b60648201526084016103f1565b6000610cff8361066c565b9050806001600160a01b0316846001600160a01b03161480610d3a5750836001600160a01b0316610d2f84610389565b6001600160a01b0316145b806109b957506001600160a01b0380821660009081526005602090815260408083209388168352929052205460ff166109b9565b826001600160a01b0316610d818261066c565b6001600160a01b031614610de95760405162461bcd60e51b815260206004820152602960248201527f4552433732313a207472616e73666572206f6620746f6b656e2074686174206960448201526839903737ba1037bbb760b91b60648201526084016103f1565b6001600160a01b038216610e4b5760405162461bcd60e51b8152602060048201526024808201527f4552433732313a207472616e7366657220746f20746865207a65726f206164646044820152637265737360e01b60648201526084016103f1565b610e56600082610c1a565b6001600160a01b0383166000908152600360205260408120805460019290610e7f908490611e10565b90915550506001600160a01b0382166000908152600360205260408120805460019290610ead908490611e27565b909155505060008181526002602052604080822080546001600160a01b0319166001600160a01b0386811691821790925591518493918716917fddf252ad1be2c89b69c2b068fc378daa952ba7f163c4a11628f55a4df523b3ef91a4505050565b606081610f325750506040805180820190915260018152600360fc1b602082015290565b8160005b8115610f5c5780610f4681611e3f565b9150610f559050600a83611e5a565b9150610f36565b60008167ffffffffffffffff811115610f7757610f77611913565b6040519080825280601f01601f191660200182016040528015610fa1576020820181803683370190505b5090505b84156109b957610fb6600183611e10565b9150610fc3600a86611b28565b610fce906030611e27565b60f81b818381518110610fe357610fe3611b3c565b60200101906001600160f81b031916908160001a905350611005600a86611e5a565b9450610fa5565b60008160405160200161101f9190611e6e565b60408051601f19818403018152919052805160209091012092915050565b816001600160a01b0316836001600160a01b0316141561109f5760405162461bcd60e51b815260206004820152601960248201527f4552433732313a20617070726f766520746f2063616c6c65720000000000000060448201526064016103f1565b6001600160a01b03838116600081815260056020908152604080832094871680845294825291829020805460ff191686151590811790915591519182527f17307eab39ab6107e8899845ad3d59bd9653f200f220920489ca2b5937696c31910160405180910390a3505050565b611117848484610d6e565b61112384848484611486565b6107ff5760405162461bcd60e51b81526004016103f190611e8a565b606061114a82610bfd565b6111ae5760405162461bcd60e51b815260206004820152602f60248201527f4552433732314d657461646174613a2055524920717565727920666f72206e6f60448201526e3732bc34b9ba32b73a103a37b5b2b760891b60648201526084016103f1565b60006111c560408051602081019091526000815290565b905060008151116111e55760405180602001604052806000815250611210565b806111ef84610f0e565b604051602001611200929190611baa565b6040516020818303038152906040525b9392505050565b805160609080611237575050604080516020810190915260008152919050565b60006003611246836002611e27565b6112509190611e5a565b61125b906004611edc565b9050600061126a826020611e27565b67ffffffffffffffff81111561128257611282611913565b6040519080825280601f01601f1916602001820160405280156112ac576020820181803683370190505b5090506000604051806060016040528060408152602001611fae604091399050600181016020830160005b86811015611338576003818a01810151603f601282901c8116860151600c83901c8216870151600684901c831688015192909316870151600891821b60ff94851601821b92841692909201901b91160160e01b8352600490920191016112d7565b50600386066001811461135257600281146113635761136f565b613d3d60f01b60011983015261136f565b603d60f81b6000198301525b505050918152949350505050565b610784828260405180602001604052806000815250611584565b6113a082610bfd565b6114035760405162461bcd60e51b815260206004820152602e60248201527f45524337323155524953746f726167653a2055524920736574206f66206e6f6e60448201526d32bc34b9ba32b73a103a37b5b2b760911b60648201526084016103f1565b60008281526006602090815260409091208251610527928401906116ea565b61052783838360405160240161143a93929190611efb565b60408051601f198184030181529190526020810180516001600160e01b031663e3849f7960e01b1790525b80516a636f6e736f6c652e6c6f67602083016000808483855afa5050505050565b60006001600160a01b0384163b1561157957604051630a85bd0160e11b81526001600160a01b0385169063150b7a02906114ca903390899088908890600401611f2e565b6020604051808303816000875af1925050508015611505575060408051601f3d908101601f1916820190925261150291810190611f6b565b60015b61155f573d808015611533576040519150601f19603f3d011682016040523d82523d6000602084013e611538565b606091505b5080516115575760405162461bcd60e51b81526004016103f190611e8a565b805181602001fd5b6001600160e01b031916630a85bd0160e11b1490506109b9565b506001949350505050565b61158e83836115b7565b61159b6000848484611486565b6105275760405162461bcd60e51b81526004016103f190611e8a565b6001600160a01b03821661160d5760405162461bcd60e51b815260206004820181905260248201527f4552433732313a206d696e7420746f20746865207a65726f206164647265737360448201526064016103f1565b61161681610bfd565b156116635760405162461bcd60e51b815260206004820152601c60248201527f4552433732313a20746f6b656e20616c7265616479206d696e7465640000000060448201526064016103f1565b6001600160a01b038216600090815260036020526040812080546001929061168c908490611e27565b909155505060008181526002602052604080822080546001600160a01b0319166001600160a01b03861690811790915590518392907fddf252ad1be2c89b69c2b068fc378daa952ba7f163c4a11628f55a4df523b3ef908290a45050565b8280546116f690611a38565b90600052602060002090601f016020900481019282611718576000855561175e565b82601f1061173157805160ff191683800117855561175e565b8280016001018555821561175e579182015b8281111561175e578251825591602001919060010190611743565b5061176a92915061176e565b5090565b5b8082111561176a576000815560010161176f565b6001600160e01b031981168114610bfa57600080fd5b6000602082840312156117ab57600080fd5b813561121081611783565b60005b838110156117d15781810151838201526020016117b9565b838111156107ff5750506000910152565b600081518084526117fa8160208601602086016117b6565b601f01601f19169290920160200192915050565b60208152600061121060208301846117e2565b60006020828403121561183357600080fd5b5035919050565b80356001600160a01b038116811461185157600080fd5b919050565b6000806040838503121561186957600080fd5b6118728361183a565b946020939093013593505050565b60008060006060848603121561189557600080fd5b61189e8461183a565b92506118ac6020850161183a565b9150604084013590509250925092565b6000602082840312156118ce57600080fd5b6112108261183a565b600080604083850312156118ea57600080fd5b6118f38361183a565b91506020830135801515811461190857600080fd5b809150509250929050565b634e487b7160e01b600052604160045260246000fd5b6000806000806080858703121561193f57600080fd5b6119488561183a565b93506119566020860161183a565b925060408501359150606085013567ffffffffffffffff8082111561197a57600080fd5b818701915087601f83011261198e57600080fd5b8135818111156119a0576119a0611913565b604051601f8201601f19908116603f011681019083821181831017156119c8576119c8611913565b816040528281528a60208487010111156119e157600080fd5b82602086016020830137600060208483010152809550505050505092959194509250565b60008060408385031215611a1857600080fd5b611a218361183a565b9150611a2f6020840161183a565b90509250929050565b600181811c90821680611a4c57607f821691505b60208210811415611a6d57634e487b7160e01b600052602260045260246000fd5b50919050565b60208082526031908201527f4552433732313a207472616e736665722063616c6c6572206973206e6f74206f6040820152701ddb995c881b9bdc88185c1c1c9bdd9959607a1b606082015260800190565b60008151611ad68185602086016117b6565b9290920192915050565b6911925494d517d5d3d49160b21b815260008251611b0581600a8501602087016117b6565b91909101600a0192915050565b634e487b7160e01b600052601260045260246000fd5b600082611b3757611b37611b12565b500690565b634e487b7160e01b600052603260045260246000fd5b6a14d150d3d39117d5d3d49160aa1b815260008251611b7881600b8501602087016117b6565b91909101600b0192915050565b69151212549117d5d3d49160b21b815260008251611b0581600a8501602087016117b6565b60008351611bbc8184602088016117b6565b835190830190611bd08183602088016117b6565b01949350505050565b60008451611beb8184602089016117b6565b845190830190611bff8183602089016117b6565b8451910190611c128183602088016117b6565b0195945050505050565b600080845481600182811c915080831680611c3857607f831692505b6020808410821415611c5857634e487b7160e01b86526022600452602486fd5b818015611c6c5760018114611c7d57611caa565b60ff19861689528489019650611caa565b60008b81526020902060005b86811015611ca25781548b820152908501908301611c89565b505084890196505b505050505050611cd6611cbd8286611ac4565b6c1e17ba32bc3a1f1e17b9bb339f60991b8152600d0190565b95945050505050565b693d913730b6b2911d101160b11b81528251600090611d0581600a8501602088016117b6565b7f222c20226465736372697074696f6e223a20224120686967686c79206163636c600a918401918201527f61696d656420636f6c6c656374696f6e206f6620737175617265732e222c2022602a8201527f696d616765223a2022646174613a696d6167652f7376672b786d6c3b62617365604a820152620d8d0b60ea1b606a8201528351611d9a81606d8401602088016117b6565b61227d60f01b606d9290910191820152606f01949350505050565b7f646174613a6170706c69636174696f6e2f6a736f6e3b6261736536342c000000815260008251611ded81601d8501602087016117b6565b91909101601d0192915050565b634e487b7160e01b600052601160045260246000fd5b600082821015611e2257611e22611dfa565b500390565b60008219821115611e3a57611e3a611dfa565b500190565b6000600019821415611e5357611e53611dfa565b5060010190565b600082611e6957611e69611b12565b500490565b60008251611e808184602087016117b6565b9190910192915050565b60208082526032908201527f4552433732313a207472616e7366657220746f206e6f6e20455243373231526560408201527131b2b4bb32b91034b6b83632b6b2b73a32b960711b606082015260800190565b6000816000190483118215151615611ef657611ef6611dfa565b500290565b606081526000611f0e60608301866117e2565b6020830194909452506001600160a01b0391909116604090910152919050565b6001600160a01b0385811682528416602082015260408101839052608060608201819052600090611f61908301846117e2565b9695505050505050565b600060208284031215611f7d57600080fd5b81516112108161178356fe416e204e465420772f20494420257320686173206265656e206d696e74656420746f2025734142434445464748494a4b4c4d4e4f505152535455565758595a6162636465666768696a6b6c6d6e6f707172737475767778797a303132333435363738392b2fa2646970667358221220888dd0cfb87c7ffa13bbd84e3555858c63fc066a23e2a86de511bd9fe501112164736f6c634300080b00333c73766720786d6c6e733d27687474703a2f2f7777772e77332e6f72672f323030302f73766727207072657365727665417370656374526174696f3d27784d696e594d696e206d656574272076696577426f783d273020302033353020333530273e3c7374796c653e2e62617365207b2066696c6c3a2077686974653b20666f6e742d66616d696c793a2073657269663b20666f6e742d73697a653a20323470783b207d3c2f7374796c653e3c726563742077696474683d273130302527206865696768743d2731303025272066696c6c3d27626c61636b27202f3e3c7465787420783d273530252720793d273530252720636c6173733d27626173652720646f6d696e616e742d626173656c696e653d276d6964646c652720746578742d616e63686f723d276d6964646c65273e",
    "sourcePath": "/Volumes/Solidity/epic-nfts/contracts/MyEpicNFT.sol",
    "compiler": {
        "name": "solc",
        "version": "0.8.11+commit.d7f03943"
    },
    "functionHashes": {
        "approve(address,uint256)": "095ea7b3",
        "balanceOf(address)": "70a08231",
        "getApproved(uint256)": "081812fc",
        "isApprovedForAll(address,address)": "e985e9c5",
        "makeAnEpicNFT()": "de9d132f",
        "name()": "06fdde03",
        "ownerOf(uint256)": "6352211e",
        "pickRandomFirstWord(uint256)": "2de38d68",
        "pickRandomSecondWord(uint256)": "b187301f",
        "pickRandomThirdWord(uint256)": "c575757a",
        "safeTransferFrom(address,address,uint256)": "42842e0e",
        "safeTransferFrom(address,address,uint256,bytes)": "b88d4fde",
        "setApprovalForAll(address,bool)": "a22cb465",
        "supportsInterface(bytes4)": "01ffc9a7",
        "symbol()": "95d89b41",
        "tokenURI(uint256)": "c87b56dd",
        "transferFrom(address,address,uint256)": "23b872dd"
    },
    "gasEstimates": {
        "creation": {
            "codeDepositCost": "1645400",
            "executionCost": "infinite",
            "totalCost": "infinite"
        },
        "external": {
            "approve(address,uint256)": "infinite",
            "balanceOf(address)": "2612",
            "getApproved(uint256)": "4799",
            "isApprovedForAll(address,address)": "infinite",
            "makeAnEpicNFT()": "infinite",
            "name()": "infinite",
            "ownerOf(uint256)": "2645",
            "pickRandomFirstWord(uint256)": "infinite",
            "pickRandomSecondWord(uint256)": "infinite",
            "pickRandomThirdWord(uint256)": "infinite",
            "safeTransferFrom(address,address,uint256)": "infinite",
            "safeTransferFrom(address,address,uint256,bytes)": "infinite",
            "setApprovalForAll(address,bool)": "26753",
            "supportsInterface(bytes4)": "534",
            "symbol()": "infinite",
            "tokenURI(uint256)": "infinite",
            "transferFrom(address,address,uint256)": "infinite"
        },
        "internal": {
            "random(string memory)": "infinite"
        }
    }
}